S01500004430303033455F4C6162335F332E7372656390
S11300000C942E000C944B000C944B000C9478022E
S11300100C944B000C944B000C944B000C94A202D7
S11300200C944B000C944B000C944B000C944B0020
S11300300C944B000C944B000C944B000C944B0010
S11300400C944B000C944B000C944B000C944B0000
S11300500C944B000C944B000C944B0011241FBEC9
S1130060CFEFD4E0DEBFCDBF11E0A0E0B1E0E8ED1A
S1130070F6E002C005900D92A831B107D9F723E04C
S1130080A8E1B1E001C01D92A234B207E1F70E94D9
S113009096010C946A030C94000090911C0181E079
S11300A0892780931C0181110AC020E030E040E0E0
S11300B050E061E070E08FEE90E00C94CA0221E021
S11300C030E040E050E061E070E08FEE90E00C94AE
S11300D0CA028F929F92AF92BF92CF92DF92EF9219
S11300E0FF92CF93DF934B015C01EA0124E630E0F9
S11300F040E050E00E94E8022AE0C22ED12CE12C1C
S1130100F12CA70196010E94E802BE0180E3820F50
S11301100E9490012196C501B401A70196010E9495
S1130120E802862FBE01805DDF91CF91FF90EF90B2
S1130130DF90CF90BF90AF909F908F900C949001E0
S1130140609118017091190180911A0190911B011D
S113015044E050E00E9469008091180190911901D7
S1130160A0911A01B0911B010196A11DB11D8093AC
S1130170180190931901A0931A01B0931B010895DB
S11301806B017C0121E0C21AD108E108F1084601A3
S113019057018FEF881A980AA80AB80A22E0C216F3
S11301A0D104E104F10464F418C081E0C81AD10850
S11301B0E108F10821E0C216D104E104F10469F078
S11301C0C501B401A70196010E94E802672B682BC0
S11301D0692B59F775016401DACF40E050E0C5019D
S11301E0B4010E94690075016401D1CFCF93E1E6A7
S11301F0F0E0C0E8C08310820E947F012F9ACDBB3B
S1130200C0936C002D9A8DE08093810080EC8093E4
S11302108000EFE6F0E080818260808382E49FE0EA
S11302209093890080938800109285001092840036
S1130230CF910895CF92DF92EF92FF920F931F9385
S1130240CF93DF938B010170107817FD4DC077FDBC
S113025053C075956795EB01C451DF4F282F30E0EB
S1130260205331092A303105E0F58053E82FF0E0BE
S1130270EE0FFF1FEC5FFE4FC080D180000F111FF7
S1130280000F111FE12CF12C36E02C2D2F709881DA
S1130290892F002E01C0880F0A94EAF78323822B4A
S11302A0282F30E0A80164E070E0CE010E94CA0269
S11302B0D294C2948FE0C822CD24D822CD2425968E
S11302C08FEFE81AF80A30E084E0E816F104E9F662
S11302D0DF91CF911F910F91FF90EF90DF90CF901E
S11302E00895C12CD12CCACF015011090E6F1F6F74
S11302F00F5F1F4F77FFADCF6F5F7F4FAACFE1E650
S1130300F0E080E88083108287EB8093E50087E04B
S11303108093E6008093E70080EC8093E4000895E6
S11303206630710514F40C941A0108950E94F600C5
S113033060E070E08DE490E00E94E60160E070E02F
S113034080EA90E00E94E60161E070E080E090E0E5
S11303500E94C00080E090E00895CF93DF9300D026
S1130360CDB7DEB79A838983809100019091010112
S113037006960E942903892B29F00F900F90DF9194
S1130380CF91089589819A8190930101809300010E
S113039061E070E006960E944903F89480911F0181
S11303A090912001009789F0FC0124813581E0912E
S11303B00001F091010135832483F0932001E0933F
S11303C01F010E94AD0178940895FFCFCF93DF936E
S11303D000D0CDB7DEB7F89420911D0130911E01F5
S11303E0232BE1F42BEF31E030939301209392011E
S11303F028E632E0309300022093FF0125ED32E03D
S113040030936D0220936C021092DA021092D9029A
S113041021E030E030931E0120931D012091020160
S1130420309103013A832983232B09F45FC0E981C6
S1130430FA814481558150930301409302019183D1
S113044080837383628315821482CF0106960E948F
S113045029030197F9F0E981FA81369689819A8115
S113046087599F4F918B808B938B828B80911F0137
S113047090912001E981FA8195838483F09320018E
S1130480E0931F0178940E94CD010F900F90DF91AB
S1130490CF9108957894A0910001B0910101ED915C
S11304A0FC91119712968D919C9113970995F8944C
S11304B0E0910001F091010180910201909103010A
S11304C095838483F0930301E093020180911F01DB
S11304D090912001009759F0FC01248135813093DB
S11304E0200120931F010E94AD01B5CFFFCFFFCFA4
S11304F01F920F920FB60F9211242F933F934F9395
S11305005F936F937F938F939F93AF93BF93EF9377
S1130510FF931F9906C060E070E080EA90E00E94BB
S1130520E601FF91EF91BF91AF919F918F917F91E0
S11305306F915F914F913F912F910F900FBE0F904C
S11305401F9018951F920F920FB60F9211242F939C
S11305503F934F935F936F937F938F939F93AF9347
S1130560BF93EF93FF9360E070E08DE490E00E940E
S1130570E601FF91EF91BF91AF919F918F917F9190
S11305806F915F914F913F912F910F900FBE0F90FC
S11305901F901895FC01862F6FEF7FEF02C0660F46
S11305A0771F8A95E2F760957095042E01C0660F57
S11305B00A94EAF78081962F90958923808380811D
S11305C001C0220F4A95EAF76223682B60830895DD
S11305D0052E97FB1EF400940E94FF0257FD07D0DE
S11305E00E94070307FC03D04EF40C94FF025095BD
S11305F04095309521953F4F4F4F5F4F089590950B
S11306008095709561957F4F8F4F9F4F0895A1E21C
S11306101A2EAA1BBB1BFD010DC0AA1FBB1FEE1F78
S1130620FF1FA217B307E407F50720F0A21BB30BC3
S1130630E40BF50B661F771F881F991F1A9469F73F
S113064060957095809590959B01AC01BD01CF019B
S11306500895DC012D923D924D925D926D927D92B2
S11306608D929D92AD92BD92CD92DD92ED92FD92CE
S11306700D931D93CD93DD93FF91EF918DB78D93E2
S11306808EB78D938FB78D93ED93FD93882799271C
S11306900994DC01CB0181309105811D2D903D90A1
S11306A04D905D906D907D908D909D90AD90BD909E
S11306B0CD90DD90ED90FD900D911D91CD91DD914A
S11306C0ED91FD910D90F894FEBF0FBEEDBFED913D
S10B06D0FD910994F894FFCF99
S11306D821018E0151151001111E111B500B411BD4
S10B06E8411F1101511F510BC8
S9030000FC
