S01900004430303033455F4C6162335F70617274322E73726563D6
S11300000C942E000C944B000C944B000C94640143
S11300100C944B000C944B000C944B000C948C01EE
S11300200C944B000C944B000C944B000C944B0020
S11300300C944B000C944B000C944B000C944B0010
S11300400C944B000C944B000C944B000C944B0000
S11300500C944B000C944B000C944B0011241FBEC9
S1130060CFEFD4E0DEBFCDBF11E0A0E0B1E0ECEA19
S1130070F4E002C005900D92AE31B107D9F723E048
S1130080AEE1B1E001C01D92A134B207E1F70E94D4
S113009005010C9454020C940000CF92DF92EF926D
S11300A0FF920F931F93CF93DF93663071050CF08B
S11300B05CC06B0191E0C92290E8D922DD2054F4A0
S11300C091E0C91AD1089EEFC92ADD24DA949FEF82
S11300D0C91AD90AEB01DD230CF42196D595C795ED
S11300E0C451DF4F282F30E0205331092A30310525
S11300F050F48053E82FF0E0EE0FFF1FE65FFE4F51
S1130100E080F18002C0E12CF12C00E010E02AC074
S11301101016110614F420E001C026E09881892FFE
S113012090E0A601440F551F440F551F042E02C032
S1130130880F991F0A94E2F782232E2D2F70822BA9
S1130140282F30E064E070E0CE010E94B201F69402
S1130150E794F694E794F694E794F694E794259656
S11301600F5F1F4F043011059CF2DF91CF911F9157
S11301700F91FF90EF90DF90CF9008950F931F930E
S1130180CF93DF9300D000D000D0CDB7DEB705E029
S113019010E014C02AE030E040E050E00E94D201B8
S11301A0605DE1E0F0E0EC0FFD1FE00FF11F608304
S11301B001501109622F732F842F952F16161706DD
S11301C01806190694F411232CF700E010E00FC070
S11301D0E1E0F0E0EC0FFD1FE00FF11FB8018081BA
S11301E00E944D000F5F1F4F02C000E010E0063078
S11301F0110574F326960FB6F894DEBF0FBECDBF7B
S1130200DF91CF911F910F91089580E090E00895C0
S1130210FB0120813181FC0135832483FB0191831F
S113022080830895DC01ED91FC911197309739F4A6
S113023067E072EB81E090E00E94BE00FFCF248172
S113024035812D933C93CF010895CF93DF9300D054
S1130250CDB7DEB79A838983809108019091090113
S113026006960E941302892B59F489819A819093EE
S113027009018093080161E070E006960E94330250
S11302800F900F90DF91CF910895CF93DF93F8945F
S1130290FC0122813381232B81F0EC016EE171E0BA
S11302A080910801909109010E940801CE010296F3
S11302B00E9412010E94250103C0FC0111821082D8
S11302C07894DF91CF9108951F920F920FB60F92F9
S11302D011242F933F934F935F936F937F938F9347
S11302E09F93AF93BF93EF93FF931F9904C080E054
S11302F091E00E944501FF91EF91BF91AF919F91D1
S11303008F917F916F915F914F913F912F910F90BA
S11303100FBE0F901F9018951F920F920FB60F9259
S113032011242F933F934F935F936F937F938F93F6
S11303309F93AF93BF93EF93FF9384E091E00E9468
S11303404501FF91EF91BF91AF919F918F917F9163
S11303506F915F914F913F912F910F900FBE0F902E
S11303601F901895FC01862F6FEF7FEF02C0660F78
S1130370771F8A95E2F760957095042E02C0660F88
S1130380771F0A94E2F730E002C0220F331F4A9528
S1130390E2F7262380816095682360838081282B7F
S11303A020830895052E97FB1EF400940E94E90112
S11303B057FD07D00E94F10107FC03D04EF40C94C2
S11303C0E90150954095309521953F4F4F4F5F4F30
S11303D0089590958095709561957F4F8F4F9F4FAD
S11303E00895A1E21A2EAA1BBB1BFD010DC0AA1F72
S11303F0BB1FEE1FFF1FA217B307E407F50720F08A
S1130400A21BB30BE40BF50B661F771F881F991F04
S11304101A9469F760957095809590959B01AC014D
S1130420BD01CF010895DC012D923D924D925D9264
S11304306D927D928D929D92AD92BD92CD92DD9200
S1130440ED92FD920D931D93CD93DD93FF91EF916A
S11304508DB78D938EB78D938FB78D93ED93FD9359
S1130460882799270994DC01CB0181309105811DEE
S11304702D903D904D905D906D907D908D909D90D0
S1130480AD90BD90CD90DD90ED90FD900D911D91BE
S1130490CD91DD91ED91FD910D90F894FEBF0FBECD
S10F04A0EDBFED91FD910994F894FFCF9D
S11304AC0100000001000000200151151001111E73
S11104BC111B500B411B411F1101511F510B0D
S9030000FC
