:100000000C942E000C944B000C944B000C944B0061
:100010000C944B000C944B000C944B000C94D202AB
:100020000C944B000C944B000C944B000C944B0024
:100030000C944B000C944B000C944B000C944B0014
:100040000C944B000C944B000C944B000C944B0004
:100050000C944B000C944B000C944B0011241FBECD
:10006000CFEFD4E0DEBFCDBF11E0A0E0B1E0E2E42D
:10007000F7E002C005900D92A831B107D9F723E04F
:10008000A8E1B1E001C01D92AF33B207E1F70E94D1
:100090007F010C949F030C940000CF92DF92EF92AB
:1000A000FF920F931F93CF93DF938B010170107812
:1000B00017FD4DC077FD53C075956795EB01C45191
:1000C000DF4F282F30E0205331092A303105E0F589
:1000D0008053E82FF0E0EE0FFF1FEC5FFE4FC08073
:1000E000D180000F111F000F111FE12CF12C36E001
:1000F0002C2D2F709881892F002E01C0880F0A9413
:10010000EAF78323822B282F30E0A80164E070E017
:10011000CE010E94FF02D294C2948FE0C822CD2467
:10012000D822CD2425968FEFE81AF80A30E084E033
:10013000E816F104E9F6DF91CF911F910F91FF903E
:10014000EF90DF90CF900895C12CD12CCACF0150F1
:1001500011090E6F1F6F0F5F1F4F77FFADCF6F5FDE
:100160007F4FAACFE1E6F0E080E88083108287EB42
:100170008093E50087E08093E6008093E70080ECC1
:100180008093E40008956630710514F40C944D00DA
:10019000089510E005C095958795C817D9076CF4A8
:1001A0000E94B101EC010E94C00197FFF4CF0196BB
:1001B00095958795C817D9079CF30E94B601111130
:1001C0000BC021E040E050E061E070E08FEE90E095
:1001D0000E94FF0211E0E4CF20E040E050E061E047
:1001E00070E08FEE90E00E94FF0210E0D9CF8F9276
:1001F0009F92AF92BF92CF92DF92EF92FF92CF93F6
:10020000DF934B015C01EA0124E630E040E050E07E
:100210000E941D032AE0C22ED12CE12CF12CA70153
:1002200096010E941D03BE0180E3820F0E94C3005D
:100230002196C501B401A70196010E941D03862FD6
:10024000BE01805DDF91CF91FF90EF90DF90CF9066
:10025000BF90AF909F908F900C94C300C12CD12C75
:100260007601C0E00EC0C11106C08FEFC81AD80ACF
:10027000E80AF80AC1E044E050E0C701B6010E9474
:10028000F7000E94C301009771F30197A1F7C0E046
:10029000F2CF6B017C0121E0C21AD108E108F1081C
:1002A000460157018FEF881A980AA80AB80A22E077
:1002B000C216D104E104F10464F418C081E0C81A44
:1002C000D108E108F10821E0C216D104E104F104EB
:1002D00069F0C501B401A70196010E941D03672BB7
:1002E000682B692B59F775016401DACF40E050E0C3
:1002F000C501B4010E94F70075016401D1CF60E02F
:1003000070E089EC90E00E94C90160E070E08EE24C
:1003100091E00E94C90161E070E080E090E00E94FD
:100320004901CF93DF9300D0CDB7DEB79A8389839D
:10033000809100019091010106960E945E03892B35
:1003400029F00F900F90DF91CF91089589819A81C4
:10035000909301018093000161E070E006960E9495
:100360007E038091180190911901089580911801E0
:100370009091190144979093190180931801089561
:1003800084E190E0089583B1881F8827881F90E05A
:100390000895EF92FF920F931F93CF93DF9300D0B6
:1003A000CDB7DEB77C018B01F89480911A01909152
:1003B0001B01892B09F446C0809102019091030131
:1003C0009A838983009709F47BC0FC01848195811D
:1003D0009093030180930201F182E08213830283F0
:1003E00015821482CF0106960E945E03019709F4DC
:1003F0006FC0E981FA81369689819A8187599F4F2A
:10040000918B808B938B828BE981FA811582148288
:10041000E0911C01F0911D01309711F452C0FC01D4
:10042000848195810097D9F789819A819583848306
:1004300078940F900F90DF91CF911F910F91FF90C3
:10044000EF90089588EF91E09093900180938F0151
:1004500085E692E09093FD018093FC0182ED92E0AD
:1004600090936A02809369021092D7021092D6028A
:100470000E94B2002F9A2D9A8DE08093810080EC2B
:1004800080938000EFE6F0E080818260808384E8E2
:100490009EE19093890080938800109285001092CD
:1004A000840081E090E090931B0180931A01809179
:1004B0000201909103019A838983009709F085CF07
:1004C000FFCF89819A8190931D0180931C01B0CF49
:1004D0007894A0910001B0910101ED91FC911197E8
:1004E00012968D919C9113970995F894A091000113
:1004F000B091010115961C921E921497E091020191
:10050000F0910301309711F417C0FC0184819581AB
:100510000097D9F7B583A48380911C0190911D01A8
:100520000097A1F0FC012481358130931D012093B7
:100530001C010E9491015DCFB0930301A0930201C1
:1005400080911C0190911D01009761F7FFCFF894F5
:100550008091000190910101FC0115821482A0910B
:100560001C01B0911D011097B9F0FD0101C0F90106
:100570002481358121153105D1F795838483149623
:100580002D913C911597CD0130931D0120931C01B5
:100590000E94910178940895009709F4FFCF20E01C
:1005A00030E0F2CF1F920F920FB60F9211242F93CB
:1005B0003F934F935F936F937F938F939F93AF93EB
:1005C000BF93EF93FF9380911801909119010196C9
:1005D00090931901809318010E94A702FF91EF9157
:1005E000BF91AF919F918F917F916F915F914F914B
:1005F0003F912F910F900FBE0F901F901895FC0107
:10060000862F6FEF7FEF02C0660F771F8A95E2F7A4
:1006100060957095042E01C0660F0A94EAF78081F8
:10062000962F909589238083808101C0220F4A955F
:10063000EAF76223682B60830895052E97FB1EF46A
:1006400000940E94340357FD07D00E943C0307FC2E
:1006500003D04EF40C943403509540953095219579
:100660003F4F4F4F5F4F08959095809570956195DE
:100670007F4F8F4F9F4F0895A1E21A2EAA1BBB1BDD
:10068000FD010DC0AA1FBB1FEE1FFF1FA217B3075E
:10069000E407F50720F0A21BB30BE40BF50B661F74
:1006A000771F881F991F1A9469F760957095809538
:1006B00090959B01AC01BD01CF010895DC012D9205
:1006C0003D924D925D926D927D928D929D92AD92F2
:1006D000BD92CD92DD92ED92FD920D931D93CD933F
:1006E000DD93FF91EF918DB78D938EB78D938FB77B
:1006F0008D93ED93FD93882799270994DC01CB0115
:1007000081309105811D2D903D904D905D906D90B3
:100710007D908D909D90AD90BD90CD90DD90ED90B1
:10072000FD900D911D91CD91DD91ED91FD910D907B
:10073000F894FEBF0FBEEDBFED91FD910994F894C2
:02074000FFCFE9
:100742001E018B0151151001111E111B500B411B73
:08075200411F1101511F510B61
:00000001FF
